{
  "contractName": "Certificados",
  "abi": [
    {
      "inputs": [],
      "payable": false,
      "stateMutability": "nonpayable",
      "type": "constructor"
    },
    {
      "constant": false,
      "inputs": [
        {
          "name": "url",
          "type": "string"
        }
      ],
      "name": "join",
      "outputs": [],
      "payable": false,
      "stateMutability": "nonpayable",
      "type": "function"
    },
    {
      "constant": true,
      "inputs": [
        {
          "name": "url",
          "type": "string"
        }
      ],
      "name": "getURL",
      "outputs": [
        {
          "name": "",
          "type": "string"
        }
      ],
      "payable": false,
      "stateMutability": "view",
      "type": "function"
    }
  ],
  "bytecode": "0x608060405234801561001057600080fd5b50336000806101000a81548173ffffffffffffffffffffffffffffffffffffffff021916908373ffffffffffffffffffffffffffffffffffffffff16021790555061049a806100606000396000f30060806040526004361061004c576000357c0100000000000000000000000000000000000000000000000000000000900463ffffffff1680636a786b0714610051578063dd392a55146100ba575b600080fd5b34801561005d57600080fd5b506100b8600480360381019080803590602001908201803590602001908080601f016020809104026020016040519081016040528093929190818152602001838380828437820191505050505050919291929050505061019c565b005b3480156100c657600080fd5b50610121600480360381019080803590602001908201803590602001908080601f0160208091040260200160405190810160405280939291908181526020018383808284378201915050505050509192919290505050610283565b6040518080602001828103825283818151815260200191508051906020019080838360005b83811015610161578082015181840152602081019050610146565b50505050905090810190601f16801561018e5780820380516001836020036101000a031916815260200191505b509250505060405180910390f35b60003373ffffffffffffffffffffffffffffffffffffffff166000809054906101000a900473ffffffffffffffffffffffffffffffffffffffff1673ffffffffffffffffffffffffffffffffffffffff161415156101f957600080fd5b6001826040518082805190602001908083835b602083101515610231578051825260208201915060208101905060208303925061020c565b6001836020036101000a038019825116818451168082178552505050505050905001915050908152602001604051809103902090508181600001908051906020019061027e9291906103b5565b505050565b606061028d610435565b6001836040518082805190602001908083835b6020831015156102c557805182526020820191506020810190506020830392506102a0565b6001836020036101000a038019825116818451168082178552505050505050905001915050908152602001604051809103902060206040519081016040529081600082018054600181600116156101000203166002900480601f01602080910402602001604051908101604052809291908181526020018280546001816001161561010002031660029004801561039d5780601f106103725761010080835404028352916020019161039d565b820191906000526020600020905b81548152906001019060200180831161038057829003601f168201915b50505050508152505090508060000151915050919050565b828054600181600116156101000203166002900490600052602060002090601f016020900481019282601f106103f657805160ff1916838001178555610424565b82800160010185558215610424579182015b82811115610423578251825591602001919060010190610408565b5b5090506104319190610449565b5090565b602060405190810160405280606081525090565b61046b91905b8082111561046757600081600090555060010161044f565b5090565b905600a165627a7a7230582010e0ad7c17e0cfac6340f5387b61244a260c5ce47ce0f503ff72eb61e86d386d0029",
  "source": "pragma solidity ^0.4.25;\r\n    contract Certificados {\r\n        address private owner;\r\n        constructor() public{\r\n        owner=msg.sender;\r\n        } \r\n        struct Certificado{\r\n            string url;\r\n        }\r\n        mapping(string => Certificado) private certificado;\r\n        function join(string url) public isOwner {\r\n            Certificado storage certificad= certificado[url];\r\n            certificad.url=url;\r\n        }\r\n        function getURL(string url)public view returns(string){\r\n            Certificado memory certificad=certificado[url];\r\n            return (certificad.url);\r\n        }\r\n        modifier isOwner() {\r\n        require(owner==msg.sender);\r\n        _;\r\n        }\r\n    }",
  "sourcePath": "c:\\xampp\\htdocs\\Certificados\\IPFSF\\contracts\\Certificados.sol",
  "compiler": {
    "name": "solc",
    "version": "0.4.25+commit.59dbf8f1.Emscripten.clang"
  },
  "schemaVersion": "2.0.2",
  "updatedAt": "2019-12-17T06:30:21.399Z"
}