{
  "contractName": "SimpleStorage",
  "abi": [
    {
      "inputs": [],
      "payable": false,
      "stateMutability": "nonpayable",
      "type": "constructor"
    },
    {
      "constant": false,
      "inputs": [
        {
          "name": "curp",
          "type": "string"
        },
        {
          "name": "url",
          "type": "string"
        }
      ],
      "name": "join",
      "outputs": [],
      "payable": false,
      "stateMutability": "nonpayable",
      "type": "function"
    },
    {
      "constant": true,
      "inputs": [
        {
          "name": "curp",
          "type": "string"
        }
      ],
      "name": "getURL",
      "outputs": [
        {
          "name": "",
          "type": "string"
        }
      ],
      "payable": false,
      "stateMutability": "view",
      "type": "function"
    }
  ],
  "bytecode": "0x608060405234801561001057600080fd5b50336000806101000a81548173ffffffffffffffffffffffffffffffffffffffff021916908373ffffffffffffffffffffffffffffffffffffffff1602179055506105fb806100606000396000f30060806040526004361061004c576000357c0100000000000000000000000000000000000000000000000000000000900463ffffffff16806329803b2114610051578063dd392a5514610100575b600080fd5b34801561005d57600080fd5b506100fe600480360381019080803590602001908201803590602001908080601f0160208091040260200160405190810160405280939291908181526020018383808284378201915050505050509192919290803590602001908201803590602001908080601f01602080910402602001604051908101604052809392919081815260200183838082843782019150505050505091929192905050506101e2565b005b34801561010c57600080fd5b50610167600480360381019080803590602001908201803590602001908080601f016020809104026020016040519081016040528093929190818152602001838380828437820191505050505050919291929050505061034e565b6040518080602001828103825283818151815260200191508051906020019080838360005b838110156101a757808201518184015260208101905061018c565b50505050905090810190601f1680156101d45780820380516001836020036101000a031916815260200191505b509250505060405180910390f35b60003373ffffffffffffffffffffffffffffffffffffffff166000809054906101000a900473ffffffffffffffffffffffffffffffffffffffff1673ffffffffffffffffffffffffffffffffffffffff1614151561023f57600080fd5b6001836040518082805190602001908083835b6020831015156102775780518252602082019150602081019050602083039250610252565b6001836020036101000a03801982511681845116808217855250505050505090500191505090815260200160405180910390209050818160000190805190602001906102c4929190610516565b5060016002846040518082805190602001908083835b6020831015156102ff57805182526020820191506020810190506020830392506102da565b6001836020036101000a038019825116818451168082178552505050505050905001915050908152602001604051809103902060006101000a81548160ff021916908315150217905550505050565b6060610358610596565b61036183610494565b151561036c57600080fd5b6001836040518082805190602001908083835b6020831015156103a4578051825260208201915060208101905060208303925061037f565b6001836020036101000a038019825116818451168082178552505050505050905001915050908152602001604051809103902060206040519081016040529081600082018054600181600116156101000203166002900480601f01602080910402602001604051908101604052809291908181526020018280546001816001161561010002031660029004801561047c5780601f106104515761010080835404028352916020019161047c565b820191906000526020600020905b81548152906001019060200180831161045f57829003601f168201915b50505050508152505090508060000151915050919050565b60006002826040518082805190602001908083835b6020831015156104ce57805182526020820191506020810190506020830392506104a9565b6001836020036101000a038019825116818451168082178552505050505050905001915050908152602001604051809103902060009054906101000a900460ff169050919050565b828054600181600116156101000203166002900490600052602060002090601f016020900481019282601f1061055757805160ff1916838001178555610585565b82800160010185558215610585579182015b82811115610584578251825591602001919060010190610569565b5b50905061059291906105aa565b5090565b602060405190810160405280606081525090565b6105cc91905b808211156105c85760008160009055506001016105b0565b5090565b905600a165627a7a72305820d74b69f963c87445938c4899d459db68539c0b3cc105534c74bcce871fda64d40029",
  "source": "     pragma solidity ^0.4.25;\n    \n    contract SimpleStorage {\n        address private owner;\n        constructor() public{\n        owner=msg.sender;\n        } \n        struct User{\n            string url;\n        }\n        mapping(string => User) private users;\n        mapping (string=>bool) private joinedUsers;\n        \n        function join(string curp, string url) public isOwner {\n            User storage user= users[curp];\n            user.url=url;\n            joinedUsers[curp]=true;\n        }\n        function getURL(string curp)public view returns(string){\n            require(userJoined(curp));\n            User memory user=users[curp];\n            return (user.url);\n        }\n    \n        function userJoined(string curp) private view returns(bool){\n            return joinedUsers[curp];\n        } \n        \n        modifier isOwner() {\n        require(owner==msg.sender);\n        _;\n        }\n    }\n",
  "sourcePath": "C:\\xampp\\htdocs\\Certificados\\IPFSF\\contracts\\SimpleStorage.sol",
  "compiler": {
    "name": "solc",
    "version": "0.4.25+commit.59dbf8f1.Emscripten.clang"
  },
  "schemaVersion": "2.0.2",
  "updatedAt": "2019-08-23T03:43:42.847Z"
}